{
  "contractName": "Logistics",
  "abi": [
    {
      "constant": true,
      "inputs": [],
      "name": "orderCount",
      "outputs": [
        {
          "name": "",
          "type": "uint256"
        }
      ],
      "payable": false,
      "stateMutability": "view",
      "type": "function"
    },
    {
      "constant": true,
      "inputs": [
        {
          "name": "",
          "type": "address"
        }
      ],
      "name": "packages",
      "outputs": [
        {
          "name": "isuidgenerated",
          "type": "bool"
        },
        {
          "name": "itemId",
          "type": "uint256"
        },
        {
          "name": "itemName",
          "type": "string"
        },
        {
          "name": "transitStatus",
          "type": "string"
        },
        {
          "name": "orderStatus",
          "type": "uint256"
        },
        {
          "name": "customer",
          "type": "address"
        },
        {
          "name": "orderTime",
          "type": "uint256"
        },
        {
          "name": "carrier1",
          "type": "address"
        },
        {
          "name": "carrier1_time",
          "type": "uint256"
        },
        {
          "name": "container_time",
          "type": "uint256"
        }
      ],
      "payable": false,
      "stateMutability": "view",
      "type": "function"
    },
    {
      "constant": true,
      "inputs": [
        {
          "name": "",
          "type": "uint256"
        }
      ],
      "name": "orderCheck",
      "outputs": [
        {
          "name": "",
          "type": "address"
        }
      ],
      "payable": false,
      "stateMutability": "view",
      "type": "function"
    },
    {
      "constant": true,
      "inputs": [
        {
          "name": "",
          "type": "address"
        }
      ],
      "name": "orderIdContainer",
      "outputs": [
        {
          "name": "",
          "type": "address"
        }
      ],
      "payable": false,
      "stateMutability": "view",
      "type": "function"
    },
    {
      "constant": true,
      "inputs": [
        {
          "name": "",
          "type": "address"
        }
      ],
      "name": "containerCheck",
      "outputs": [
        {
          "name": "",
          "type": "address"
        }
      ],
      "payable": false,
      "stateMutability": "view",
      "type": "function"
    },
    {
      "constant": true,
      "inputs": [
        {
          "name": "",
          "type": "address"
        }
      ],
      "name": "containers",
      "outputs": [
        {
          "name": "",
          "type": "bool"
        }
      ],
      "payable": false,
      "stateMutability": "view",
      "type": "function"
    },
    {
      "constant": true,
      "inputs": [
        {
          "name": "",
          "type": "address"
        }
      ],
      "name": "orders",
      "outputs": [
        {
          "name": "",
          "type": "address"
        }
      ],
      "payable": false,
      "stateMutability": "view",
      "type": "function"
    },
    {
      "inputs": [],
      "payable": false,
      "stateMutability": "nonpayable",
      "type": "constructor"
    },
    {
      "anonymous": false,
      "inputs": [
        {
          "indexed": false,
          "name": "ordernumber",
          "type": "address"
        }
      ],
      "name": "orderId",
      "type": "event"
    },
    {
      "anonymous": false,
      "inputs": [
        {
          "indexed": false,
          "name": "regStatus",
          "type": "bool"
        }
      ],
      "name": "containerReg",
      "type": "event"
    },
    {
      "anonymous": false,
      "inputs": [
        {
          "indexed": false,
          "name": "containerStatus",
          "type": "string"
        }
      ],
      "name": "statusEvent",
      "type": "event"
    },
    {
      "constant": true,
      "inputs": [],
      "name": "contractCheck",
      "outputs": [
        {
          "name": "",
          "type": "string"
        }
      ],
      "payable": false,
      "stateMutability": "pure",
      "type": "function"
    },
    {
      "constant": false,
      "inputs": [
        {
          "name": "_containerAddress",
          "type": "address"
        },
        {
          "name": "_orderId",
          "type": "address"
        }
      ],
      "name": "manageContainers",
      "outputs": [
        {
          "name": "",
          "type": "bool"
        }
      ],
      "payable": false,
      "stateMutability": "nonpayable",
      "type": "function"
    },
    {
      "constant": false,
      "inputs": [
        {
          "name": "_itemId",
          "type": "uint256"
        },
        {
          "name": "_itemName",
          "type": "string"
        },
        {
          "name": "_price",
          "type": "uint256"
        }
      ],
      "name": "orderItem",
      "outputs": [
        {
          "name": "",
          "type": "address"
        }
      ],
      "payable": true,
      "stateMutability": "payable",
      "type": "function"
    },
    {
      "constant": true,
      "inputs": [
        {
          "name": "_containerAddress",
          "type": "address"
        }
      ],
      "name": "orderIdToContainer",
      "outputs": [
        {
          "name": "",
          "type": "address"
        }
      ],
      "payable": false,
      "stateMutability": "view",
      "type": "function"
    },
    {
      "constant": true,
      "inputs": [
        {
          "name": "addr",
          "type": "address"
        }
      ],
      "name": "orderNum",
      "outputs": [
        {
          "name": "",
          "type": "address"
        }
      ],
      "payable": false,
      "stateMutability": "view",
      "type": "function"
    },
    {
      "constant": true,
      "inputs": [
        {
          "name": "packageId",
          "type": "address"
        }
      ],
      "name": "containerStatus",
      "outputs": [
        {
          "name": "",
          "type": "string"
        }
      ],
      "payable": false,
      "stateMutability": "view",
      "type": "function"
    },
    {
      "constant": true,
      "inputs": [
        {
          "name": "containerAddress",
          "type": "address"
        }
      ],
      "name": "containerActivation",
      "outputs": [
        {
          "name": "",
          "type": "bool"
        }
      ],
      "payable": false,
      "stateMutability": "view",
      "type": "function"
    },
    {
      "constant": true,
      "inputs": [
        {
          "name": "_orderCount",
          "type": "uint256"
        }
      ],
      "name": "orderList",
      "outputs": [
        {
          "name": "",
          "type": "address"
        }
      ],
      "payable": false,
      "stateMutability": "view",
      "type": "function"
    },
    {
      "constant": true,
      "inputs": [
        {
          "name": "_orderId",
          "type": "address"
        }
      ],
      "name": "containerList",
      "outputs": [
        {
          "name": "",
          "type": "address"
        }
      ],
      "payable": false,
      "stateMutability": "view",
      "type": "function"
    },
    {
      "constant": true,
      "inputs": [],
      "name": "orderVolume",
      "outputs": [
        {
          "name": "",
          "type": "uint256"
        }
      ],
      "payable": false,
      "stateMutability": "view",
      "type": "function"
    },
    {
      "constant": false,
      "inputs": [
        {
          "name": "_uniqueId",
          "type": "address"
        },
        {
          "name": "_transitStatus",
          "type": "string"
        }
      ],
      "name": "containerReport",
      "outputs": [
        {
          "name": "",
          "type": "string"
        }
      ],
      "payable": false,
      "stateMutability": "nonpayable",
      "type": "function"
    },
    {
      "constant": false,
      "inputs": [
        {
          "name": "_orderId",
          "type": "address"
        }
      ],
      "name": "completeTx",
      "outputs": [
        {
          "name": "",
          "type": "bool"
        }
      ],
      "payable": false,
      "stateMutability": "nonpayable",
      "type": "function"
    }
  ],
  "bytecode": "0x608060405234801561001057600080fd5b50600280546001600160a01b03191633179055611226806100326000396000f3fe6080604052600436106101145760003560e01c80637b43753f116100a0578063b564a6e611610064578063b564a6e614610678578063c6904fa5146106ab578063e1a87faf146106e6578063f3a35df414610719578063f40e84711461074c57610114565b80637b43753f146104f2578063904f8fa21461051c57806399ec77e51461054f5780639b64f260146105fe578063a3381e411461064557610114565b80634af28146116100e75780634af281461461043857806351416b731461046b578063536eee56146104805780636a19ffba1461049557806376f75e7f146104c857610114565b80631f6ba5d5146101195780632453ffa8146102515780633396441b146102785780633750fa27146103e9575b600080fd5b34801561012557600080fd5b506101dc6004803603604081101561013c57600080fd5b6001600160a01b03823516919081019060408101602082013564010000000081111561016757600080fd5b82018360208201111561017957600080fd5b8035906020019184600183028401116401000000008311171561019b57600080fd5b91908080601f01602080910402602001604051908101604052809392919081815260200183838082843760009201919091525092955061077f945050505050565b6040805160208082528351818301528351919283929083019185019080838360005b838110156102165781810151838201526020016101fe565b50505050905090810190601f1680156102435780820380516001836020036101000a031916815260200191505b509250505060405180910390f35b34801561025d57600080fd5b50610266610993565b60408051918252519081900360200190f35b34801561028457600080fd5b506102ab6004803603602081101561029b57600080fd5b50356001600160a01b0316610999565b604051808b1515151581526020018a81526020018060200180602001898152602001886001600160a01b03166001600160a01b03168152602001878152602001866001600160a01b03166001600160a01b0316815260200185815260200184815260200183810383528b818151815260200191508051906020019080838360005b8381101561034457818101518382015260200161032c565b50505050905090810190601f1680156103715780820380516001836020036101000a031916815260200191505b5083810382528a5181528a516020918201918c019080838360005b838110156103a457818101518382015260200161038c565b50505050905090810190601f1680156103d15780820380516001836020036101000a031916815260200191505b509c5050505050505050505050505060405180910390f35b3480156103f557600080fd5b5061041c6004803603602081101561040c57600080fd5b50356001600160a01b0316610b0c565b604080516001600160a01b039092168252519081900360200190f35b34801561044457600080fd5b5061041c6004803603602081101561045b57600080fd5b50356001600160a01b0316610b48565b34801561047757600080fd5b50610266610b66565b34801561048c57600080fd5b506101dc610b88565b3480156104a157600080fd5b5061041c600480360360208110156104b857600080fd5b50356001600160a01b0316610bbf565b3480156104d457600080fd5b5061041c600480360360208110156104eb57600080fd5b5035610bdd565b3480156104fe57600080fd5b5061041c6004803603602081101561051557600080fd5b5035610c13565b34801561052857600080fd5b5061041c6004803603602081101561053f57600080fd5b50356001600160a01b0316610c2e565b61041c6004803603606081101561056557600080fd5b8135919081019060408101602082013564010000000081111561058757600080fd5b82018360208201111561059957600080fd5b803590602001918460018302840111640100000000831117156105bb57600080fd5b91908080601f0160208091040260200160405190810160405280939291908181526020018383808284376000920191909152509295505091359250610c49915050565b34801561060a57600080fd5b506106316004803603602081101561062157600080fd5b50356001600160a01b0316610e55565b604080519115158252519081900360200190f35b34801561065157600080fd5b5061041c6004803603602081101561066857600080fd5b50356001600160a01b0316610e73565b34801561068457600080fd5b506106316004803603602081101561069b57600080fd5b50356001600160a01b0316610e8e565b3480156106b757600080fd5b50610631600480360360408110156106ce57600080fd5b506001600160a01b0381358116916020013516610ed6565b3480156106f257600080fd5b506101dc6004803603602081101561070957600080fd5b50356001600160a01b0316610fff565b34801561072557600080fd5b506106316004803603602081101561073c57600080fd5b50356001600160a01b03166110ad565b34801561075857600080fd5b5061041c6004803603602081101561076f57600080fd5b50356001600160a01b03166110c2565b6001600160a01b03821660009081526003602052604090205460609060ff166107a757600080fd5b3360009081526005602052604090205460ff166107c357600080fd5b6001600160a01b0383166000908152600360205260409020600401546001146107eb57600080fd5b6001600160a01b0383166000908152600360208181526040909220845161081a93919092019190850190611133565b506001600160a01b038316600090815260036020818152604092839020426009820155835182815292018054600260001961010060018416150201909116049183018290527f7ae65767b00d8e5cc6b883b1944d07b5b475121755b9c6fdb07303aa48fb3d49939092918291820190849080156108d85780601f106108ad576101008083540402835291602001916108d8565b820191906000526020600020905b8154815290600101906020018083116108bb57829003601f168201915b50509250505060405180910390a16001600160a01b03831660009081526003602081815260409283902090910180548351601f6002600019610100600186161502019093169290920491820184900484028101840190945280845290918301828280156109865780601f1061095b57610100808354040283529160200191610986565b820191906000526020600020905b81548152906001019060200180831161096957829003601f168201915b5050505050905092915050565b60005481565b60036020908152600091825260409182902080546001808301546002808501805488516101009582161595909502600019011691909104601f810187900487028401870190975286835260ff909316959094919291830182828015610a3f5780601f10610a1457610100808354040283529160200191610a3f565b820191906000526020600020905b815481529060010190602001808311610a2257829003601f168201915b5050505060038301805460408051602060026001851615610100026000190190941693909304601f8101849004840282018401909252818152949594935090830182828015610acf5780601f10610aa457610100808354040283529160200191610acf565b820191906000526020600020905b815481529060010190602001808311610ab257829003601f168201915b5050505060048301546005840154600685015460078601546008870154600990970154959693956001600160a01b0393841695509193921691908a565b6002546000906001600160a01b03163314610b2657600080fd5b506001600160a01b03808216600090815260076020526040902054165b919050565b6001600160a01b039081166000908152600860205260409020541690565b6002546000906001600160a01b03163314610b8057600080fd5b506000545b90565b60408051808201909152600e81527f636f6e747261637420776f726b73000000000000000000000000000000000000602082015290565b6001600160a01b039081166000908152600460205260409020541690565b6002546000906001600160a01b03163314610bf757600080fd5b506000908152600660205260409020546001600160a01b031690565b6006602052600090815260409020546001600160a01b031681565b6008602052600090815260409020546001600160a01b031681565b6001819055600034821115610c5d57600080fd5b306000818152600960209081526040808320933190935582513360601b818301524260348083019190915284518083039091018152605490910193849052805192936002939192909182918401908083835b60208310610cce5780518252601f199092019160209182019101610caf565b51815160209384036101000a60001901801990921691161790526040519190930194509192505080830381855afa158015610d0d573d6000803e3d6000fd5b5050506040513d6020811015610d2257600080fd5b5051600080546001908101825560609290921c808252600360209081526040909220805460ff1916841781559283018890558651909350610d699260020191870190611133565b506040518060600160405280602f81526020016111cc602f91396001600160a01b03821660009081526003602081815260409092208351610db09491909201920190611133565b506001600160a01b03811660008181526003602090815260408083206001600480830191909155600582018054336001600160a01b03199182168117909255426006948501559086529084528285208054821687179055845485529083529281902080549093168417909255815192835290517f6aadda661fdaec8246e4587a8a4a6bd50bf5fc5b8e09228796a188bd51fa731f9281900390910190a1949350505050565b6001600160a01b031660009081526005602052604090205460ff1690565b6007602052600090815260409020546001600160a01b031681565b6002546000906001600160a01b03163314610ea857600080fd5b6001600160a01b0382166000908152600360208190526040909120600401541415610b4357610b43336110dd565b6002546000906001600160a01b03163314610ef057600080fd5b6001600160a01b03831660009081526005602052604090205460ff16610f38576001600160a01b0383166000908152600560205260409020805460ff19166001179055610f59565b6001600160a01b0383166000908152600560205260409020805460ff191690555b6001600160a01b03808316600081815260076020908152604080832080549589166001600160a01b0319968716811790915583526008825280832080549095169093179093556005835281902054815160ff9091161515815290517f44d70734ae135251e88a5ddbf4683ad6ddf957f7e70ea06adda50fc02ea80160929181900390910190a150506001600160a01b031660009081526005602052604090205460ff1690565b6001600160a01b03811660009081526003602081815260409283902090910180548351601f60026000196101006001861615020190931692909204918201849004840281018401909452808452606093928301828280156110a15780601f10611076576101008083540402835291602001916110a1565b820191906000526020600020905b81548152906001019060200180831161108457829003601f168201915b50505050509050919050565b60056020526000908152604090205460ff1681565b6004602052600090815260409020546001600160a01b031681565b6001805430600090815260096020526040808220805493909303909255915490516001600160a01b0384169282156108fc02929190818181858888f1935050505015801561112f573d6000803e3d6000fd5b5050565b828054600181600116156101000203166002900490600052602060002090601f016020900481019282601f1061117457805160ff19168380011785556111a1565b828001600101855582156111a1579182015b828111156111a1578251825591602001919060010190611186565b506111ad9291506111b1565b5090565b610b8591905b808211156111ad57600081556001016111b756fe596f7572207061636b616765206973206f72646572656420616e6420697320756e6465722070726f63657373696e67a165627a7a72305820b711938c2c9708f351778eb3cc276b1cdc104f8c13c04d7c1f26a405060199e00029",
  "source": "pragma solidity ^0.5.7;\r\n\r\ncontract Logistics {\r\n    \r\n    //event\r\n    event orderId(\r\n        address ordernumber\r\n        );\r\n        \r\n    event containerReg(\r\n        bool regStatus\r\n        ); \r\n        \r\n    event statusEvent(\r\n        string containerStatus\r\n        );    \r\n    \r\n    ///DECLARATION\r\n    struct package {\r\n        bool isuidgenerated;\r\n        uint itemId;\r\n        string itemName;\r\n        string transitStatus;\r\n        uint orderStatus; //1=ordered;2=in-transit;3=delivered;4=cancelled;\r\n        \r\n        address customer;\r\n        uint orderTime;\r\n        \r\n        address carrier1;\r\n        uint carrier1_time;\r\n        \r\n        uint container_time;\r\n    }\r\n    \r\n    uint public orderCount;\r\n    uint orderValue;\r\n    address Owner;\r\n    mapping (address => package) public packages;\r\n    mapping (address => address) public orders;\r\n    mapping (address => bool) public containers;\r\n    mapping (uint => address) public orderCheck;\r\n    mapping (address => address) public containerCheck;\r\n    mapping (address => address) public orderIdContainer;\r\n    mapping (address => uint) balances;\r\n\r\n    ///DECLARATION END\r\n    \r\n    ///modifier\r\n    constructor () public {\r\n        Owner = msg.sender;\r\n    }\r\n    \r\n    modifier onlyOwner() {\r\n        require(Owner == msg.sender);\r\n        _;\r\n    }\r\n    \r\n    ///MODIFIER END\r\n    function withdraw(address payable _to) internal {\r\n        balances[address(this)] -= orderValue;\r\n        _to.transfer(orderValue);\r\n    }\r\n    // contract check method after instantiation\r\n    function contractCheck() pure public returns (string memory) {\r\n        string memory response = \"contract works\";\r\n        return response;\r\n    }\r\n    \r\n    function manageContainers(address _containerAddress, address _orderId) onlyOwner public returns (bool) {\r\n        if(!containers[_containerAddress]) {\r\n            containers[_containerAddress] = true;\r\n        } else {\r\n            containers[_containerAddress] = false;\r\n        }\r\n        containerCheck[_orderId] = _containerAddress;\r\n        orderIdContainer[_containerAddress] = _orderId;\r\n        emit containerReg(containers[_containerAddress]);\r\n        return containers[_containerAddress];\r\n    }\r\n    \r\n    ////orderitem function//////\r\n    function orderItem(uint _itemId, string memory _itemName, uint _price) public payable returns (address) {\r\n        orderValue = _price;\r\n        require(msg.value >= orderValue);\r\n        balances[address(this)] = address(this).balance;\r\n        address uniqueId = address(bytes20(sha256(abi.encodePacked(msg.sender, now))));\r\n        orderCount++;\r\n        packages[uniqueId].isuidgenerated = true;\r\n        packages[uniqueId].itemId = _itemId;\r\n        packages[uniqueId].itemName = _itemName;\r\n        packages[uniqueId].transitStatus = \"Your package is ordered and is under processing\";\r\n        packages[uniqueId].orderStatus = 1;\r\n        packages[uniqueId].customer = msg.sender;\r\n        packages[uniqueId].orderTime = now;\r\n        orders[msg.sender] = uniqueId;\r\n        orderCheck[orderCount] = uniqueId;\r\n        emit orderId(uniqueId);    \r\n        return uniqueId;\r\n    }\r\n    ///orderitem function end \r\n    function orderIdToContainer(address _containerAddress) public view returns (address) {\r\n        return orderIdContainer[_containerAddress];\r\n    }\r\n    /// orderNumber\r\n    function orderNum(address addr) public view returns (address) {\r\n        return orders[addr];\r\n    }\r\n    /// end of orderNumber\r\n\r\n    /// containerStatus\r\n    function containerStatus(address packageId) public view returns (string memory) {\r\n        return packages[packageId].transitStatus;\r\n    }\r\n    /// end of containerStatus \r\n    /// container activation\r\n    function containerActivation(address containerAddress) public view returns (bool) {\r\n        return containers[containerAddress];\r\n    }\r\n    /// end of container activity\r\n    /// orderCheck \r\n    function orderList(uint _orderCount) onlyOwner public view returns (address) {\r\n        return orderCheck[_orderCount];\r\n    }\r\n    /// end of orderCheck\r\n    /// containerCheck\r\n    function containerList(address _orderId) onlyOwner public view returns (address) {\r\n        return containerCheck[_orderId];\r\n    }\r\n    /// end of containerCheck\r\n    function orderVolume() onlyOwner public view returns (uint) {\r\n        return orderCount;\r\n    }\r\n    /// cancel order \r\n    /// cancel order ends \r\n    \r\n    /// iot container report\r\n    function containerReport(address _uniqueId, string memory _transitStatus) public returns (string memory) {\r\n        require(packages[_uniqueId].isuidgenerated);\r\n        //bytes32 hash = sha256(abi.encodePacked(_transitStatus));\r\n        //address sender = recover(hash, signature);\r\n        require(containers[msg.sender]);\r\n        require(packages[_uniqueId].orderStatus == 1);\r\n        \r\n        packages[_uniqueId].transitStatus = _transitStatus;\r\n        packages[_uniqueId].container_time = now;\r\n        emit statusEvent(packages[_uniqueId].transitStatus);\r\n        return packages[_uniqueId].transitStatus;\r\n    }\r\n    /// iot container report end\r\n    function completeTx(address _orderId) onlyOwner public returns(bool) {\r\n        if(packages[_orderId].orderStatus == 3) {\r\n            withdraw(msg.sender);\r\n        }\r\n    }\r\n    \r\n}",
  "sourcePath": "C:/Users/darkhan/Documents/blockchain/ethereum development/ethereum-iot-1/asset_track_dapp/dapp_atrack/contracts/Logistics.sol",
  "compiler": {
    "name": "solc",
    "version": "0.5.8+commit.23d335f2.Emscripten.clang"
  },
  "schemaVersion": "3.0.11",
  "updatedAt": "2019-07-13T17:57:19.707Z",
  "devdoc": {
    "methods": {}
  },
  "userdoc": {
    "methods": {
      "completeTx(address)": {
        "notice": "iot container report end"
      },
      "constructor": "modifier",
      "containerActivation(address)": {
        "notice": "container activation"
      },
      "containerList(address)": {
        "notice": "containerCheck"
      },
      "containerReport(address,string)": {
        "notice": "iot container report"
      },
      "containerStatus(address)": {
        "notice": "containerStatus"
      },
      "orderIdToContainer(address)": {
        "notice": "orderitem function end "
      },
      "orderItem(uint256,string,uint256)": {
        "notice": "/orderitem function//////"
      },
      "orderList(uint256)": {
        "notice": "orderCheck "
      },
      "orderNum(address)": {
        "notice": "orderNumber"
      },
      "orderVolume()": {
        "notice": "end of containerCheck"
      }
    }
  }
}