{
  "contractName": "Logistics",
  "abi": [
    {
      "constant": true,
      "inputs": [
        {
          "name": "",
          "type": "address"
        }
      ],
      "name": "packages",
      "outputs": [
        {
          "name": "isuidgenerated",
          "type": "bool"
        },
        {
          "name": "itemId",
          "type": "uint256"
        },
        {
          "name": "itemName",
          "type": "string"
        },
        {
          "name": "transitStatus",
          "type": "string"
        },
        {
          "name": "orderStatus",
          "type": "uint256"
        },
        {
          "name": "customer",
          "type": "address"
        },
        {
          "name": "orderTime",
          "type": "uint256"
        },
        {
          "name": "carrier1",
          "type": "address"
        },
        {
          "name": "carrier1_time",
          "type": "uint256"
        },
        {
          "name": "container_time",
          "type": "uint256"
        }
      ],
      "payable": false,
      "stateMutability": "view",
      "type": "function"
    },
    {
      "constant": true,
      "inputs": [
        {
          "name": "",
          "type": "address"
        }
      ],
      "name": "containers",
      "outputs": [
        {
          "name": "",
          "type": "bool"
        }
      ],
      "payable": false,
      "stateMutability": "view",
      "type": "function"
    },
    {
      "constant": true,
      "inputs": [
        {
          "name": "",
          "type": "address"
        }
      ],
      "name": "orders",
      "outputs": [
        {
          "name": "",
          "type": "address"
        }
      ],
      "payable": false,
      "stateMutability": "view",
      "type": "function"
    },
    {
      "inputs": [],
      "payable": false,
      "stateMutability": "nonpayable",
      "type": "constructor"
    },
    {
      "anonymous": false,
      "inputs": [
        {
          "indexed": false,
          "name": "ordernumber",
          "type": "address"
        }
      ],
      "name": "orderId",
      "type": "event"
    },
    {
      "anonymous": false,
      "inputs": [
        {
          "indexed": false,
          "name": "regStatus",
          "type": "bool"
        }
      ],
      "name": "containerReg",
      "type": "event"
    },
    {
      "anonymous": false,
      "inputs": [
        {
          "indexed": false,
          "name": "containerStatus",
          "type": "string"
        }
      ],
      "name": "statusEvent",
      "type": "event"
    },
    {
      "constant": true,
      "inputs": [],
      "name": "contractCheck",
      "outputs": [
        {
          "name": "",
          "type": "string"
        }
      ],
      "payable": false,
      "stateMutability": "pure",
      "type": "function"
    },
    {
      "constant": false,
      "inputs": [
        {
          "name": "_containerAddress",
          "type": "address"
        }
      ],
      "name": "manageContainers",
      "outputs": [
        {
          "name": "",
          "type": "bool"
        }
      ],
      "payable": false,
      "stateMutability": "nonpayable",
      "type": "function"
    },
    {
      "constant": false,
      "inputs": [
        {
          "name": "_itemId",
          "type": "uint256"
        },
        {
          "name": "_itemName",
          "type": "string"
        }
      ],
      "name": "orderItem",
      "outputs": [
        {
          "name": "",
          "type": "address"
        }
      ],
      "payable": false,
      "stateMutability": "nonpayable",
      "type": "function"
    },
    {
      "constant": false,
      "inputs": [
        {
          "name": "_uniqueId",
          "type": "address"
        },
        {
          "name": "_transitStatus",
          "type": "string"
        }
      ],
      "name": "containerReport",
      "outputs": [
        {
          "name": "",
          "type": "string"
        }
      ],
      "payable": false,
      "stateMutability": "nonpayable",
      "type": "function"
    }
  ],
  "bytecode": "0x608060405234801561001057600080fd5b50600080546001600160a01b03191633179055610c1c806100326000396000f3fe608060405234801561001057600080fd5b506004361061007d5760003560e01c80635dee7c8a1161005b5780635dee7c8a14610319578063854a540514610353578063f3a35df41461041c578063f40e8471146104425761007d565b80631f6ba5d5146100825780633396441b146101ad578063536eee5614610311575b600080fd5b6101386004803603604081101561009857600080fd5b6001600160a01b0382351691908101906040810160208201356401000000008111156100c357600080fd5b8201836020820111156100d557600080fd5b803590602001918460018302840111640100000000831117156100f757600080fd5b91908080601f016020809104026020016040519081016040528093929190818152602001838380828437600092019190915250929550610468945050505050565b6040805160208082528351818301528351919283929083019185019080838360005b8381101561017257818101518382015260200161015a565b50505050905090810190601f16801561019f5780820380516001836020036101000a031916815260200191505b509250505060405180910390f35b6101d3600480360360208110156101c357600080fd5b50356001600160a01b031661067e565b604051808b1515151581526020018a81526020018060200180602001898152602001886001600160a01b03166001600160a01b03168152602001878152602001866001600160a01b03166001600160a01b0316815260200185815260200184815260200183810383528b818151815260200191508051906020019080838360005b8381101561026c578181015183820152602001610254565b50505050905090810190601f1680156102995780820380516001836020036101000a031916815260200191505b5083810382528a5181528a516020918201918c019080838360005b838110156102cc5781810151838201526020016102b4565b50505050905090810190601f1680156102f95780820380516001836020036101000a031916815260200191505b509c5050505050505050505050505060405180910390f35b6101386107ee565b61033f6004803603602081101561032f57600080fd5b50356001600160a01b0316610826565b604080519115158252519081900360200190f35b6104006004803603604081101561036957600080fd5b8135919081019060408101602082013564010000000081111561038b57600080fd5b82018360208201111561039d57600080fd5b803590602001918460018302840111640100000000831117156103bf57600080fd5b91908080601f01602080910402602001604051908101604052809392919081815260200183838082843760009201919091525092955061091a945050505050565b604080516001600160a01b039092168252519081900360200190f35b61033f6004803603602081101561043257600080fd5b50356001600160a01b0316610af9565b6104006004803603602081101561045857600080fd5b50356001600160a01b0316610b0e565b6001600160a01b03821660009081526001602052604090205460609060ff1661049057600080fd5b3360009081526003602052604090205460ff166104ac57600080fd5b6001600160a01b038316600090815260016020819052604090912060040154146104d557600080fd5b6001600160a01b0383166000908152600160209081526040909120835161050492600390920191850190610b29565b506001600160a01b038316600090815260016020818152604092839020426009820155835182815260039091018054600294811615610100026000190116939093049181018290527f7ae65767b00d8e5cc6b883b1944d07b5b475121755b9c6fdb07303aa48fb3d499390918291820190849080156105c45780601f10610599576101008083540402835291602001916105c4565b820191906000526020600020905b8154815290600101906020018083116105a757829003601f168201915b50509250505060405180910390a16001600160a01b03831660009081526001602081815260409283902060030180548451600294821615610100026000190190911693909304601f81018390048302840183019094528383529192908301828280156106715780601f1061064657610100808354040283529160200191610671565b820191906000526020600020905b81548152906001019060200180831161065457829003601f168201915b5050505050905092915050565b6001602081815260009283526040928390208054818401546002808401805488516101009882161598909802600019011691909104601f810186900486028701860190975286865260ff90921695909492938301828280156107215780601f106106f657610100808354040283529160200191610721565b820191906000526020600020905b81548152906001019060200180831161070457829003601f168201915b5050505060038301805460408051602060026001851615610100026000190190941693909304601f81018490048402820184019092528181529495949350908301828280156107b15780601f10610786576101008083540402835291602001916107b1565b820191906000526020600020905b81548152906001019060200180831161079457829003601f168201915b5050505060048301546005840154600685015460078601546008870154600990970154959693956001600160a01b0393841695509193921691908a565b60408051808201909152600e81527f636f6e747261637420776f726b7300000000000000000000000000000000000060208201525b90565b600080546001600160a01b0316331461083e57600080fd5b6001600160a01b03821660009081526003602052604090205460ff16610886576001600160a01b0382166000908152600360205260409020805460ff191660011790556108a7565b6001600160a01b0382166000908152600360205260409020805460ff191690555b6001600160a01b03821660009081526003602090815260409182902054825160ff9091161515815291517f44d70734ae135251e88a5ddbf4683ad6ddf957f7e70ea06adda50fc02ea801609281900390910190a1506001600160a01b031660009081526003602052604090205460ff1690565b6000806002334260405160200180836001600160a01b03166001600160a01b031660601b8152601401828152602001925050506040516020818303038152906040526040518082805190602001908083835b6020831061098b5780518252601f19909201916020918201910161096c565b51815160209384036101000a60001901801990921691161790526040519190930194509192505080830381855afa1580156109ca573d6000803e3d6000fd5b5050506040513d60208110156109df57600080fd5b505160601c6000818152600160208181526040909220805460ff1916821781559081018790558551929350610a1c92600290910191860190610b29565b506040518060600160405280602f8152602001610bc2602f91396001600160a01b03821660009081526001602090815260409091208251610a67936003909201929190910190610b29565b506001600160a01b03811660008181526001602081815260408084206004810193909355600583018054336001600160a01b03199182168117909255426006909501949094558452600282529283902080549092168417909155815192835290517f6aadda661fdaec8246e4587a8a4a6bd50bf5fc5b8e09228796a188bd51fa731f9281900390910190a19392505050565b60036020526000908152604090205460ff1681565b6002602052600090815260409020546001600160a01b031681565b828054600181600116156101000203166002900490600052602060002090601f016020900481019282601f10610b6a57805160ff1916838001178555610b97565b82800160010185558215610b97579182015b82811115610b97578251825591602001919060010190610b7c565b50610ba3929150610ba7565b5090565b61082391905b80821115610ba35760008155600101610bad56fe596f7572207061636b616765206973206f72646572656420616e6420697320756e6465722070726f63657373696e67a165627a7a72305820a32f1c9802b8ebe6f297d867c12b544b0c3de0e505bdeb7edd576231296b14470029",
  "source": "pragma solidity ^0.5.7;\r\n\r\ncontract Logistics {\r\n    \r\n    //event\r\n    event orderId(\r\n        address ordernumber\r\n        );\r\n        \r\n    event containerReg(\r\n        bool regStatus\r\n        ); \r\n        \r\n    event statusEvent(\r\n        string containerStatus\r\n        );    \r\n    \r\n    ///DECLARATION\r\n    struct package {\r\n        bool isuidgenerated;\r\n        uint itemId;\r\n        string itemName;\r\n        string transitStatus;\r\n        uint orderStatus; //1=ordered;2=in-transit;3=delivered;4=cancelled;\r\n        \r\n        address customer;\r\n        uint orderTime;\r\n        \r\n        address carrier1;\r\n        uint carrier1_time;\r\n        \r\n        uint container_time;\r\n    }\r\n    \r\n    address Owner;\r\n    mapping (address => package) public packages;\r\n    mapping (address => address) public orders;\r\n    mapping (address => bool) public containers;\r\n    ///DECLARATION END\r\n    \r\n    ///modifier\r\n    constructor () public {\r\n        Owner = msg.sender;\r\n    }\r\n    \r\n    modifier onlyOwner() {\r\n        require(Owner == msg.sender);\r\n        _;\r\n    }\r\n    \r\n    ///MODIFIER END\r\n    \r\n    // contract check method after instantiation\r\n    function contractCheck() pure public returns (string memory) {\r\n        string memory response = \"contract works\";\r\n        return response;\r\n    }\r\n    \r\n    function manageContainers(address _containerAddress) onlyOwner public returns (bool) {\r\n        if(!containers[_containerAddress]) {\r\n            containers[_containerAddress] = true;\r\n        } else {\r\n            containers[_containerAddress] = false;\r\n        }\r\n        emit containerReg(containers[_containerAddress]);\r\n        return containers[_containerAddress];\r\n    }\r\n    \r\n    ////orderitem function//////\r\n    function orderItem(uint _itemId, string memory _itemName) public returns (address) {\r\n        address uniqueId = address(bytes20(sha256(abi.encodePacked(msg.sender, now))));\r\n        \r\n        packages[uniqueId].isuidgenerated = true;\r\n        packages[uniqueId].itemId = _itemId;\r\n        packages[uniqueId].itemName = _itemName;\r\n        packages[uniqueId].transitStatus = \"Your package is ordered and is under processing\";\r\n        packages[uniqueId].orderStatus = 1;\r\n        packages[uniqueId].customer = msg.sender;\r\n        packages[uniqueId].orderTime = now;\r\n        orders[msg.sender] = uniqueId;\r\n        emit orderId(uniqueId);    \r\n        return uniqueId;\r\n    }\r\n    ///orderitem function end \r\n    \r\n    /// cancel order \r\n\r\n    /// cancel order ends \r\n    \r\n    /// iot container report\r\n    function containerReport(address _uniqueId, string memory _transitStatus) public returns (string memory) {\r\n        require(packages[_uniqueId].isuidgenerated);\r\n        //bytes32 hash = sha256(abi.encodePacked(_transitStatus));\r\n        //address sender = recover(hash, signature);\r\n        require(containers[msg.sender]);\r\n        require(packages[_uniqueId].orderStatus == 1);\r\n        \r\n        packages[_uniqueId].transitStatus = _transitStatus;\r\n        packages[_uniqueId].container_time = now;\r\n        emit statusEvent(packages[_uniqueId].transitStatus);\r\n        return packages[_uniqueId].transitStatus;\r\n    }\r\n    /// iot container report end\r\n    \r\n    \r\n}",
  "sourcePath": "C:/Users/darkhan/Documents/blockchain/ethereum development/ethereum-iot-1/asset_track_dapp/dapp_atrack/contracts/Logistics.sol",
  "compiler": {
    "name": "solc",
    "version": "0.5.8+commit.23d335f2.Emscripten.clang"
  },
  "schemaVersion": "3.0.11",
  "updatedAt": "2019-06-27T10:47:05.130Z",
  "devdoc": {
    "methods": {}
  },
  "userdoc": {
    "methods": {
      "constructor": "modifier",
      "containerReport(address,string)": {
        "notice": "iot container report"
      },
      "contractCheck()": {
        "notice": "MODIFIER END"
      },
      "orderItem(uint256,string)": {
        "notice": "/orderitem function//////"
      }
    }
  }
}