{
  "contractName": "Logistics",
  "abi": [
    {
      "constant": true,
      "inputs": [],
      "name": "orderCount",
      "outputs": [
        {
          "name": "",
          "type": "uint256"
        }
      ],
      "payable": false,
      "stateMutability": "view",
      "type": "function"
    },
    {
      "constant": true,
      "inputs": [
        {
          "name": "",
          "type": "address"
        }
      ],
      "name": "packages",
      "outputs": [
        {
          "name": "isuidgenerated",
          "type": "bool"
        },
        {
          "name": "itemId",
          "type": "uint256"
        },
        {
          "name": "itemName",
          "type": "string"
        },
        {
          "name": "transitStatus",
          "type": "string"
        },
        {
          "name": "orderStatus",
          "type": "uint256"
        },
        {
          "name": "customer",
          "type": "address"
        },
        {
          "name": "orderTime",
          "type": "uint256"
        },
        {
          "name": "carrier1",
          "type": "address"
        },
        {
          "name": "carrier1_time",
          "type": "uint256"
        },
        {
          "name": "container_time",
          "type": "uint256"
        }
      ],
      "payable": false,
      "stateMutability": "view",
      "type": "function"
    },
    {
      "constant": true,
      "inputs": [
        {
          "name": "",
          "type": "uint256"
        }
      ],
      "name": "orderCheck",
      "outputs": [
        {
          "name": "",
          "type": "address"
        }
      ],
      "payable": false,
      "stateMutability": "view",
      "type": "function"
    },
    {
      "constant": true,
      "inputs": [
        {
          "name": "",
          "type": "address"
        }
      ],
      "name": "containerCheck",
      "outputs": [
        {
          "name": "",
          "type": "address"
        }
      ],
      "payable": false,
      "stateMutability": "view",
      "type": "function"
    },
    {
      "constant": true,
      "inputs": [
        {
          "name": "",
          "type": "address"
        }
      ],
      "name": "containers",
      "outputs": [
        {
          "name": "",
          "type": "bool"
        }
      ],
      "payable": false,
      "stateMutability": "view",
      "type": "function"
    },
    {
      "constant": true,
      "inputs": [
        {
          "name": "",
          "type": "address"
        }
      ],
      "name": "orders",
      "outputs": [
        {
          "name": "",
          "type": "address"
        }
      ],
      "payable": false,
      "stateMutability": "view",
      "type": "function"
    },
    {
      "inputs": [],
      "payable": false,
      "stateMutability": "nonpayable",
      "type": "constructor"
    },
    {
      "anonymous": false,
      "inputs": [
        {
          "indexed": false,
          "name": "ordernumber",
          "type": "address"
        }
      ],
      "name": "orderId",
      "type": "event"
    },
    {
      "anonymous": false,
      "inputs": [
        {
          "indexed": false,
          "name": "regStatus",
          "type": "bool"
        }
      ],
      "name": "containerReg",
      "type": "event"
    },
    {
      "anonymous": false,
      "inputs": [
        {
          "indexed": false,
          "name": "containerStatus",
          "type": "string"
        }
      ],
      "name": "statusEvent",
      "type": "event"
    },
    {
      "constant": true,
      "inputs": [],
      "name": "contractCheck",
      "outputs": [
        {
          "name": "",
          "type": "string"
        }
      ],
      "payable": false,
      "stateMutability": "pure",
      "type": "function"
    },
    {
      "constant": false,
      "inputs": [
        {
          "name": "_containerAddress",
          "type": "address"
        },
        {
          "name": "_orderId",
          "type": "address"
        }
      ],
      "name": "manageContainers",
      "outputs": [
        {
          "name": "",
          "type": "bool"
        }
      ],
      "payable": false,
      "stateMutability": "nonpayable",
      "type": "function"
    },
    {
      "constant": false,
      "inputs": [
        {
          "name": "_itemId",
          "type": "uint256"
        },
        {
          "name": "_itemName",
          "type": "string"
        }
      ],
      "name": "orderItem",
      "outputs": [
        {
          "name": "",
          "type": "address"
        }
      ],
      "payable": false,
      "stateMutability": "nonpayable",
      "type": "function"
    },
    {
      "constant": true,
      "inputs": [
        {
          "name": "addr",
          "type": "address"
        }
      ],
      "name": "orderNum",
      "outputs": [
        {
          "name": "",
          "type": "address"
        }
      ],
      "payable": false,
      "stateMutability": "view",
      "type": "function"
    },
    {
      "constant": true,
      "inputs": [
        {
          "name": "packageId",
          "type": "address"
        }
      ],
      "name": "containerStatus",
      "outputs": [
        {
          "name": "",
          "type": "string"
        }
      ],
      "payable": false,
      "stateMutability": "view",
      "type": "function"
    },
    {
      "constant": true,
      "inputs": [
        {
          "name": "containerAddress",
          "type": "address"
        }
      ],
      "name": "containerActivation",
      "outputs": [
        {
          "name": "",
          "type": "bool"
        }
      ],
      "payable": false,
      "stateMutability": "view",
      "type": "function"
    },
    {
      "constant": true,
      "inputs": [
        {
          "name": "_orderCount",
          "type": "uint256"
        }
      ],
      "name": "orderList",
      "outputs": [
        {
          "name": "",
          "type": "address"
        }
      ],
      "payable": false,
      "stateMutability": "view",
      "type": "function"
    },
    {
      "constant": true,
      "inputs": [
        {
          "name": "_orderId",
          "type": "address"
        }
      ],
      "name": "containerList",
      "outputs": [
        {
          "name": "",
          "type": "address"
        }
      ],
      "payable": false,
      "stateMutability": "view",
      "type": "function"
    },
    {
      "constant": true,
      "inputs": [],
      "name": "orderVolume",
      "outputs": [
        {
          "name": "",
          "type": "uint256"
        }
      ],
      "payable": false,
      "stateMutability": "view",
      "type": "function"
    },
    {
      "constant": false,
      "inputs": [
        {
          "name": "_uniqueId",
          "type": "address"
        },
        {
          "name": "_transitStatus",
          "type": "string"
        }
      ],
      "name": "containerReport",
      "outputs": [
        {
          "name": "",
          "type": "string"
        }
      ],
      "payable": false,
      "stateMutability": "nonpayable",
      "type": "function"
    }
  ],
  "bytecode": "0x608060405234801561001057600080fd5b50600180546001600160a01b03191633179055610fb0806100326000396000f3fe608060405234801561001057600080fd5b50600436106101005760003560e01c80637b43753f11610097578063c6904fa511610066578063c6904fa51461056d578063e1a87faf1461059b578063f3a35df4146105c1578063f40e8471146105e757610100565b80637b43753f14610443578063854a5405146104605780639b64f2601461050d578063a3381e411461054757610100565b806351416b73116100d357806351416b73146103f0578063536eee56146103f85780636a19ffba1461040057806376f75e7f1461042657610100565b80631f6ba5d5146101055780632453ffa8146102305780633396441b1461024a5780633750fa27146103ae575b600080fd5b6101bb6004803603604081101561011b57600080fd5b6001600160a01b03823516919081019060408101602082013564010000000081111561014657600080fd5b82018360208201111561015857600080fd5b8035906020019184600183028401116401000000008311171561017a57600080fd5b91908080601f01602080910402602001604051908101604052809392919081815260200183838082843760009201919091525092955061060d945050505050565b6040805160208082528351818301528351919283929083019185019080838360005b838110156101f55781810151838201526020016101dd565b50505050905090810190601f1680156102225780820380516001836020036101000a031916815260200191505b509250505060405180910390f35b610238610820565b60408051918252519081900360200190f35b6102706004803603602081101561026057600080fd5b50356001600160a01b0316610826565b604051808b1515151581526020018a81526020018060200180602001898152602001886001600160a01b03166001600160a01b03168152602001878152602001866001600160a01b03166001600160a01b0316815260200185815260200184815260200183810383528b818151815260200191508051906020019080838360005b838110156103095781810151838201526020016102f1565b50505050905090810190601f1680156103365780820380516001836020036101000a031916815260200191505b5083810382528a5181528a516020918201918c019080838360005b83811015610369578181015183820152602001610351565b50505050905090810190601f1680156103965780820380516001836020036101000a031916815260200191505b509c5050505050505050505050505060405180910390f35b6103d4600480360360208110156103c457600080fd5b50356001600160a01b0316610999565b604080516001600160a01b039092168252519081900360200190f35b6102386109d2565b6101bb6109f4565b6103d46004803603602081101561041657600080fd5b50356001600160a01b0316610a2b565b6103d46004803603602081101561043c57600080fd5b5035610a49565b6103d46004803603602081101561045957600080fd5b5035610a7f565b6103d46004803603604081101561047657600080fd5b8135919081019060408101602082013564010000000081111561049857600080fd5b8201836020820111156104aa57600080fd5b803590602001918460018302840111640100000000831117156104cc57600080fd5b91908080601f016020809104026020016040519081016040528093929190818152602001838380828437600092019190915250929550610a9a945050505050565b6105336004803603602081101561052357600080fd5b50356001600160a01b0316610c92565b604080519115158252519081900360200190f35b6103d46004803603602081101561055d57600080fd5b50356001600160a01b0316610cb0565b6105336004803603604081101561058357600080fd5b506001600160a01b0381358116916020013516610ccb565b6101bb600480360360208110156105b157600080fd5b50356001600160a01b0316610de1565b610533600480360360208110156105d757600080fd5b50356001600160a01b0316610e8d565b6103d4600480360360208110156105fd57600080fd5b50356001600160a01b0316610ea2565b6001600160a01b03821660009081526002602052604090205460609060ff1661063557600080fd5b3360009081526004602052604090205460ff1661065157600080fd5b6001600160a01b03831660009081526002602052604090206004015460011461067957600080fd5b6001600160a01b038316600090815260026020908152604090912083516106a892600390920191850190610ebd565b506001600160a01b0383166000908152600260208181526040928390204260098201558351828152600390910180546000196101006001831615020116939093049181018290527f7ae65767b00d8e5cc6b883b1944d07b5b475121755b9c6fdb07303aa48fb3d499390918291820190849080156107675780601f1061073c57610100808354040283529160200191610767565b820191906000526020600020905b81548152906001019060200180831161074a57829003601f168201915b50509250505060405180910390a16001600160a01b038316600090815260026020818152604092839020600301805484516001821615610100026000190190911693909304601f81018390048302840183019094528383529192908301828280156108135780601f106107e857610100808354040283529160200191610813565b820191906000526020600020905b8154815290600101906020018083116107f657829003601f168201915b5050505050905092915050565b60005481565b600260208181526000928352604092839020805460018083015483860180548851601f6000199583161561010002959095019091169790970492830186900486028701860190975281865260ff90921695919492938301828280156108cc5780601f106108a1576101008083540402835291602001916108cc565b820191906000526020600020905b8154815290600101906020018083116108af57829003601f168201915b5050505060038301805460408051602060026001851615610100026000190190941693909304601f810184900484028201840190925281815294959493509083018282801561095c5780601f106109315761010080835404028352916020019161095c565b820191906000526020600020905b81548152906001019060200180831161093f57829003601f168201915b5050505060048301546005840154600685015460078601546008870154600990970154959693956001600160a01b0393841695509193921691908a565b6001546000906001600160a01b031633146109b357600080fd5b506001600160a01b039081166000908152600660205260409020541690565b6001546000906001600160a01b031633146109ec57600080fd5b506000545b90565b60408051808201909152600e81527f636f6e747261637420776f726b73000000000000000000000000000000000000602082015290565b6001600160a01b039081166000908152600360205260409020541690565b6001546000906001600160a01b03163314610a6357600080fd5b506000908152600560205260409020546001600160a01b031690565b6005602052600090815260409020546001600160a01b031681565b6000806002334260405160200180836001600160a01b03166001600160a01b031660601b8152601401828152602001925050506040516020818303038152906040526040518082805190602001908083835b60208310610b0b5780518252601f199092019160209182019101610aec565b51815160209384036101000a60001901801990921691161790526040519190930194509192505080830381855afa158015610b4a573d6000803e3d6000fd5b5050506040513d6020811015610b5f57600080fd5b5051600080546001908101825560609290921c808252600260208181526040909320805460ff1916851781559384018890558651919450610ba4930191860190610ebd565b506040518060600160405280602f8152602001610f56602f91396001600160a01b03821660009081526002602090815260409091208251610bef936003909201929190910190610ebd565b506001600160a01b03811660008181526002602090815260408083206001600482015560058082018054336001600160a01b031991821681179092554260069094019390935585526003845282852080548316871790558454855283529281902080549093168417909255815192835290517f6aadda661fdaec8246e4587a8a4a6bd50bf5fc5b8e09228796a188bd51fa731f9281900390910190a19392505050565b6001600160a01b031660009081526004602052604090205460ff1690565b6006602052600090815260409020546001600160a01b031681565b6001546000906001600160a01b03163314610ce557600080fd5b6001600160a01b03831660009081526004602052604090205460ff16610d2d576001600160a01b0383166000908152600460205260409020805460ff19166001179055610d4e565b6001600160a01b0383166000908152600460205260409020805460ff191690555b6001600160a01b03828116600090815260066020908152604080832080546001600160a01b0319169488169485179055928252600481529082902054825160ff9091161515815291517f44d70734ae135251e88a5ddbf4683ad6ddf957f7e70ea06adda50fc02ea801609281900390910190a150506001600160a01b031660009081526004602052604090205460ff1690565b6001600160a01b038116600090815260026020818152604092839020600301805484516001821615610100026000190190911693909304601f81018390048302840183019094528383526060939091830182828015610e815780601f10610e5657610100808354040283529160200191610e81565b820191906000526020600020905b815481529060010190602001808311610e6457829003601f168201915b50505050509050919050565b60046020526000908152604090205460ff1681565b6003602052600090815260409020546001600160a01b031681565b828054600181600116156101000203166002900490600052602060002090601f016020900481019282601f10610efe57805160ff1916838001178555610f2b565b82800160010185558215610f2b579182015b82811115610f2b578251825591602001919060010190610f10565b50610f37929150610f3b565b5090565b6109f191905b80821115610f375760008155600101610f4156fe596f7572207061636b616765206973206f72646572656420616e6420697320756e6465722070726f63657373696e67a165627a7a72305820468add82c00e4f278b8d8387e9d71e2e1d31a7c46e42d328c460b6c590ccf2f60029",
  "source": "pragma solidity ^0.5.7;\r\n\r\ncontract Logistics {\r\n    \r\n    //event\r\n    event orderId(\r\n        address ordernumber\r\n        );\r\n        \r\n    event containerReg(\r\n        bool regStatus\r\n        ); \r\n        \r\n    event statusEvent(\r\n        string containerStatus\r\n        );    \r\n    \r\n    ///DECLARATION\r\n    struct package {\r\n        bool isuidgenerated;\r\n        uint itemId;\r\n        string itemName;\r\n        string transitStatus;\r\n        uint orderStatus; //1=ordered;2=in-transit;3=delivered;4=cancelled;\r\n        \r\n        address customer;\r\n        uint orderTime;\r\n        \r\n        address carrier1;\r\n        uint carrier1_time;\r\n        \r\n        uint container_time;\r\n    }\r\n    \r\n    uint public orderCount;\r\n    address Owner;\r\n    mapping (address => package) public packages;\r\n    mapping (address => address) public orders;\r\n    mapping (address => bool) public containers;\r\n    mapping (uint => address) public orderCheck;\r\n    mapping (address => address) public containerCheck;\r\n    ///DECLARATION END\r\n    \r\n    ///modifier\r\n    constructor () public {\r\n        Owner = msg.sender;\r\n    }\r\n    \r\n    modifier onlyOwner() {\r\n        require(Owner == msg.sender);\r\n        _;\r\n    }\r\n    \r\n    ///MODIFIER END\r\n    \r\n    // contract check method after instantiation\r\n    function contractCheck() pure public returns (string memory) {\r\n        string memory response = \"contract works\";\r\n        return response;\r\n    }\r\n    \r\n    function manageContainers(address _containerAddress, address _orderId) onlyOwner public returns (bool) {\r\n        if(!containers[_containerAddress]) {\r\n            containers[_containerAddress] = true;\r\n        } else {\r\n            containers[_containerAddress] = false;\r\n        }\r\n        containerCheck[_orderId] = _containerAddress;\r\n        emit containerReg(containers[_containerAddress]);\r\n        return containers[_containerAddress];\r\n    }\r\n    \r\n    ////orderitem function//////\r\n    function orderItem(uint _itemId, string memory _itemName) public returns (address) {\r\n        address uniqueId = address(bytes20(sha256(abi.encodePacked(msg.sender, now))));\r\n        orderCount++;\r\n        packages[uniqueId].isuidgenerated = true;\r\n        packages[uniqueId].itemId = _itemId;\r\n        packages[uniqueId].itemName = _itemName;\r\n        packages[uniqueId].transitStatus = \"Your package is ordered and is under processing\";\r\n        packages[uniqueId].orderStatus = 1;\r\n        packages[uniqueId].customer = msg.sender;\r\n        packages[uniqueId].orderTime = now;\r\n        orders[msg.sender] = uniqueId;\r\n        orderCheck[orderCount] = uniqueId;\r\n        emit orderId(uniqueId);    \r\n        return uniqueId;\r\n    }\r\n    ///orderitem function end \r\n    \r\n    /// orderNumber\r\n    function orderNum(address addr) public view returns (address) {\r\n        return orders[addr];\r\n    }\r\n    /// end of orderNumber\r\n\r\n    /// containerStatus\r\n    function containerStatus(address packageId) public view returns (string memory) {\r\n        return packages[packageId].transitStatus;\r\n    }\r\n    /// end of containerStatus \r\n    /// container activation\r\n    function containerActivation(address containerAddress) public view returns (bool) {\r\n        return containers[containerAddress];\r\n    }\r\n    /// end of container activity\r\n    /// orderCheck \r\n    function orderList(uint _orderCount) onlyOwner public view returns (address) {\r\n        return orderCheck[_orderCount];\r\n    }\r\n    /// end of orderCheck\r\n    /// containerCheck\r\n    function containerList(address _orderId) onlyOwner public view returns (address) {\r\n        return containerCheck[_orderId];\r\n    }\r\n    /// end of containerCheck\r\n    function orderVolume() onlyOwner public view returns (uint) {\r\n        return orderCount;\r\n    }\r\n    /// cancel order \r\n    /// cancel order ends \r\n    \r\n    /// iot container report\r\n    function containerReport(address _uniqueId, string memory _transitStatus) public returns (string memory) {\r\n        require(packages[_uniqueId].isuidgenerated);\r\n        //bytes32 hash = sha256(abi.encodePacked(_transitStatus));\r\n        //address sender = recover(hash, signature);\r\n        require(containers[msg.sender]);\r\n        require(packages[_uniqueId].orderStatus == 1);\r\n        \r\n        packages[_uniqueId].transitStatus = _transitStatus;\r\n        packages[_uniqueId].container_time = now;\r\n        emit statusEvent(packages[_uniqueId].transitStatus);\r\n        return packages[_uniqueId].transitStatus;\r\n    }\r\n    /// iot container report end\r\n    \r\n    \r\n}",
  "sourcePath": "C:/Users/darkhan/Documents/blockchain/ethereum development/ethereum-iot-1/asset_track_dapp/dapp_atrack/contracts/Logistics.sol",
  "compiler": {
    "name": "solc",
    "version": "0.5.8+commit.23d335f2.Emscripten.clang"
  },
  "schemaVersion": "3.0.11",
  "updatedAt": "2019-07-10T11:43:55.710Z",
  "devdoc": {
    "methods": {}
  },
  "userdoc": {
    "methods": {
      "constructor": "modifier",
      "containerActivation(address)": {
        "notice": "container activation"
      },
      "containerList(address)": {
        "notice": "containerCheck"
      },
      "containerReport(address,string)": {
        "notice": "iot container report"
      },
      "containerStatus(address)": {
        "notice": "containerStatus"
      },
      "contractCheck()": {
        "notice": "MODIFIER END"
      },
      "orderItem(uint256,string)": {
        "notice": "/orderitem function//////"
      },
      "orderList(uint256)": {
        "notice": "orderCheck "
      },
      "orderNum(address)": {
        "notice": "orderNumber"
      },
      "orderVolume()": {
        "notice": "end of containerCheck"
      }
    }
  }
}